{
  "address": "0x959922bE3CAee4b8Cd9a407cc3ac1C251C2007B1",
  "abi": [
    {
      "inputs": [
        {
          "internalType": "address",
          "name": "abashAddress",
          "type": "address"
        },
        {
          "internalType": "address",
          "name": "bashAddress",
          "type": "address"
        },
        {
          "internalType": "address",
          "name": "presaleContractAddress",
          "type": "address"
        }
      ],
      "stateMutability": "nonpayable",
      "type": "constructor"
    },
    {
      "anonymous": false,
      "inputs": [
        {
          "indexed": true,
          "internalType": "address",
          "name": "previousOwner",
          "type": "address"
        },
        {
          "indexed": true,
          "internalType": "address",
          "name": "newOwner",
          "type": "address"
        }
      ],
      "name": "OwnershipTransferred",
      "type": "event"
    },
    {
      "anonymous": false,
      "inputs": [
        {
          "indexed": false,
          "internalType": "address",
          "name": "redeemer",
          "type": "address"
        },
        {
          "indexed": false,
          "internalType": "uint256",
          "name": "bashAmount",
          "type": "uint256"
        },
        {
          "indexed": false,
          "internalType": "uint256",
          "name": "totalBashLeftToRedeem",
          "type": "uint256"
        }
      ],
      "name": "Redeemed",
      "type": "event"
    },
    {
      "inputs": [],
      "name": "abash",
      "outputs": [
        {
          "internalType": "contract IERC20WithMetadata",
          "name": "",
          "type": "address"
        }
      ],
      "stateMutability": "view",
      "type": "function"
    },
    {
      "inputs": [],
      "name": "bash",
      "outputs": [
        {
          "internalType": "contract IERC20WithMetadata",
          "name": "",
          "type": "address"
        }
      ],
      "stateMutability": "view",
      "type": "function"
    },
    {
      "inputs": [],
      "name": "owner",
      "outputs": [
        {
          "internalType": "address",
          "name": "",
          "type": "address"
        }
      ],
      "stateMutability": "view",
      "type": "function"
    },
    {
      "inputs": [],
      "name": "presale",
      "outputs": [
        {
          "internalType": "address",
          "name": "",
          "type": "address"
        }
      ],
      "stateMutability": "view",
      "type": "function"
    },
    {
      "inputs": [
        {
          "internalType": "uint256",
          "name": "amount",
          "type": "uint256"
        }
      ],
      "name": "redeem",
      "outputs": [],
      "stateMutability": "nonpayable",
      "type": "function"
    },
    {
      "inputs": [],
      "name": "remaining",
      "outputs": [
        {
          "internalType": "uint256",
          "name": "amount",
          "type": "uint256"
        }
      ],
      "stateMutability": "view",
      "type": "function"
    },
    {
      "inputs": [
        {
          "internalType": "address",
          "name": "tokenAddress",
          "type": "address"
        }
      ],
      "name": "removeERC20",
      "outputs": [],
      "stateMutability": "nonpayable",
      "type": "function"
    },
    {
      "inputs": [],
      "name": "renounceOwnership",
      "outputs": [],
      "stateMutability": "nonpayable",
      "type": "function"
    },
    {
      "inputs": [
        {
          "internalType": "address",
          "name": "newOwner",
          "type": "address"
        }
      ],
      "name": "transferOwnership",
      "outputs": [],
      "stateMutability": "nonpayable",
      "type": "function"
    }
  ],
  "transactionHash": "0xd673d69010fda1d151fb949ab06caef7301812885da195a0c7b0f19a3a07aad6",
  "args": [
    "0x5FbDB2315678afecb367f032d93F642f64180aa3",
    "0xe7f1725E7734CE288F8367e1Bb143E90bb3F0512",
    "0xA51c1fc2f0D1a1b8494Ed1FE312d7C3a78Ed91C0"
  ],
  "numDeployments": 1,
  "solcInputHash": "589cfebf85a5b02315690f40df2c1670",
  "bytecode": "0x60806040523480156200001157600080fd5b5060405162001b5838038062001b588339818101604052810190620000379190620003b2565b620000576200004b6200027c60201b60201c565b6200028460201b60201c565b600073ffffffffffffffffffffffffffffffffffffffff168373ffffffffffffffffffffffffffffffffffffffff161415620000ca576040517f08c379a0000000000000000000000000000000000000000000000000000000008152600401620000c1906200046f565b60405180910390fd5b600073ffffffffffffffffffffffffffffffffffffffff168273ffffffffffffffffffffffffffffffffffffffff1614156200013d576040517f08c379a00000000000000000000000000000000000000000000000000000000081526004016200013490620004e1565b60405180910390fd5b600073ffffffffffffffffffffffffffffffffffffffff168173ffffffffffffffffffffffffffffffffffffffff161415620001b0576040517f08c379a0000000000000000000000000000000000000000000000000000000008152600401620001a79062000553565b60405180910390fd5b82600260006101000a81548173ffffffffffffffffffffffffffffffffffffffff021916908373ffffffffffffffffffffffffffffffffffffffff16021790555081600160006101000a81548173ffffffffffffffffffffffffffffffffffffffff021916908373ffffffffffffffffffffffffffffffffffffffff16021790555080600360006101000a81548173ffffffffffffffffffffffffffffffffffffffff021916908373ffffffffffffffffffffffffffffffffffffffff16021790555050505062000575565b600033905090565b60008060009054906101000a900473ffffffffffffffffffffffffffffffffffffffff169050816000806101000a81548173ffffffffffffffffffffffffffffffffffffffff021916908373ffffffffffffffffffffffffffffffffffffffff1602179055508173ffffffffffffffffffffffffffffffffffffffff168173ffffffffffffffffffffffffffffffffffffffff167f8be0079c531659141344cd1fd0a4f28419497f9722a3daafe3b4186f6b6457e060405160405180910390a35050565b600080fd5b600073ffffffffffffffffffffffffffffffffffffffff82169050919050565b60006200037a826200034d565b9050919050565b6200038c816200036d565b81146200039857600080fd5b50565b600081519050620003ac8162000381565b92915050565b600080600060608486031215620003ce57620003cd62000348565b5b6000620003de868287016200039b565b9350506020620003f1868287016200039b565b925050604062000404868287016200039b565b9150509250925092565b600082825260208201905092915050565b7f4142415348206164647265737300000000000000000000000000000000000000600082015250565b600062000457600d836200040e565b915062000464826200041f565b602082019050919050565b600060208201905081810360008301526200048a8162000448565b9050919050565b7f4241534820616464726573730000000000000000000000000000000000000000600082015250565b6000620004c9600c836200040e565b9150620004d68262000491565b602082019050919050565b60006020820190508181036000830152620004fc81620004ba565b9050919050565b7f4174626173682050726573616c65206164647265737300000000000000000000600082015250565b60006200053b6016836200040e565b9150620005488262000503565b602082019050919050565b600060208201905081810360008301526200056e816200052c565b9050919050565b6115d380620005856000396000f3fe608060405234801561001057600080fd5b50600436106100935760003560e01c8063a67755c211610066578063a67755c2146100fc578063db006a7514610118578063f2fde38b14610134578063f54d1bed14610150578063fdea8e0b1461016e57610093565b8063474bc79f1461009857806355234ec0146100b6578063715018a6146100d45780638da5cb5b146100de575b600080fd5b6100a061018c565b6040516100ad9190610da3565b60405180910390f35b6100be6101b2565b6040516100cb9190610dd7565b60405180910390f35b6100dc6103c6565b005b6100e661044e565b6040516100f39190610e13565b60405180910390f35b61011660048036038101906101119190610e5f565b610477565b005b610132600480360381019061012d9190610eb8565b61062c565b005b61014e60048036038101906101499190610e5f565b610ad2565b005b610158610bca565b6040516101659190610da3565b60405180910390f35b610176610bf0565b6040516101839190610e13565b60405180910390f35b600160009054906101000a900473ffffffffffffffffffffffffffffffffffffffff1681565b60006103c1600260009054906101000a900473ffffffffffffffffffffffffffffffffffffffff1673ffffffffffffffffffffffffffffffffffffffff166370a08231306040518263ffffffff1660e01b81526004016102129190610e13565b602060405180830381865afa15801561022f573d6000803e3d6000fd5b505050506040513d601f19601f820116820180604052508101906102539190610efa565b6103b3600260009054906101000a900473ffffffffffffffffffffffffffffffffffffffff1673ffffffffffffffffffffffffffffffffffffffff166370a08231600360009054906101000a900473ffffffffffffffffffffffffffffffffffffffff166040518263ffffffff1660e01b81526004016102d39190610e13565b602060405180830381865afa1580156102f0573d6000803e3d6000fd5b505050506040513d601f19601f820116820180604052508101906103149190610efa565b600260009054906101000a900473ffffffffffffffffffffffffffffffffffffffff1673ffffffffffffffffffffffffffffffffffffffff166318160ddd6040518163ffffffff1660e01b8152600401602060405180830381865afa158015610381573d6000803e3d6000fd5b505050506040513d601f19601f820116820180604052508101906103a59190610efa565b610c1690919063ffffffff16565b610c1690919063ffffffff16565b905090565b6103ce610c2c565b73ffffffffffffffffffffffffffffffffffffffff166103ec61044e565b73ffffffffffffffffffffffffffffffffffffffff1614610442576040517f08c379a000000000000000000000000000000000000000000000000000000000815260040161043990610f84565b60405180910390fd5b61044c6000610c34565b565b60008060009054906101000a900473ffffffffffffffffffffffffffffffffffffffff16905090565b61047f610c2c565b73ffffffffffffffffffffffffffffffffffffffff1661049d61044e565b73ffffffffffffffffffffffffffffffffffffffff16146104f3576040517f08c379a00000000000000000000000000000000000000000000000000000000081526004016104ea90610f84565b60405180910390fd5b8073ffffffffffffffffffffffffffffffffffffffff1663a9059cbb338373ffffffffffffffffffffffffffffffffffffffff166370a08231306040518263ffffffff1660e01b81526004016105499190610e13565b602060405180830381865afa158015610566573d6000803e3d6000fd5b505050506040513d601f19601f8201168201806040525081019061058a9190610efa565b6040518363ffffffff1660e01b81526004016105a7929190610fa4565b6020604051808303816000875af11580156105c6573d6000803e3d6000fd5b505050506040513d601f19601f820116820180604052508101906105ea9190611005565b610629576040517f08c379a00000000000000000000000000000000000000000000000000000000081526004016106209061107e565b60405180910390fd5b50565b6000811161066f576040517f08c379a0000000000000000000000000000000000000000000000000000000008152600401610666906110ea565b60405180910390fd5b60006107ce600260009054906101000a900473ffffffffffffffffffffffffffffffffffffffff1673ffffffffffffffffffffffffffffffffffffffff1663313ce5676040518163ffffffff1660e01b8152600401602060405180830381865afa1580156106e1573d6000803e3d6000fd5b505050506040513d601f19601f820116820180604052508101906107059190611143565b600a61071191906112d2565b6107c0600160009054906101000a900473ffffffffffffffffffffffffffffffffffffffff1673ffffffffffffffffffffffffffffffffffffffff1663313ce5676040518163ffffffff1660e01b8152600401602060405180830381865afa158015610781573d6000803e3d6000fd5b505050506040513d601f19601f820116820180604052508101906107a59190611143565b600a6107b191906112d2565b85610cf890919063ffffffff16565b610d0e90919063ffffffff16565b9050600160009054906101000a900473ffffffffffffffffffffffffffffffffffffffff1673ffffffffffffffffffffffffffffffffffffffff166370a08231306040518263ffffffff1660e01b815260040161082b9190610e13565b602060405180830381865afa158015610848573d6000803e3d6000fd5b505050506040513d601f19601f8201168201806040525081019061086c9190610efa565b8111156108ae576040517f08c379a00000000000000000000000000000000000000000000000000000000081526004016108a59061138f565b60405180910390fd5b600260009054906101000a900473ffffffffffffffffffffffffffffffffffffffff1673ffffffffffffffffffffffffffffffffffffffff166323b872dd3330856040518463ffffffff1660e01b815260040161090d939291906113af565b6020604051808303816000875af115801561092c573d6000803e3d6000fd5b505050506040513d601f19601f820116820180604052508101906109509190611005565b50600160009054906101000a900473ffffffffffffffffffffffffffffffffffffffff1673ffffffffffffffffffffffffffffffffffffffff1663a9059cbb33836040518363ffffffff1660e01b81526004016109ae929190610fa4565b6020604051808303816000875af11580156109cd573d6000803e3d6000fd5b505050506040513d601f19601f820116820180604052508101906109f19190611005565b506000600160009054906101000a900473ffffffffffffffffffffffffffffffffffffffff1673ffffffffffffffffffffffffffffffffffffffff166370a08231306040518263ffffffff1660e01b8152600401610a4f9190610e13565b602060405180830381865afa158015610a6c573d6000803e3d6000fd5b505050506040513d601f19601f82011682018060405250810190610a909190610efa565b90507ff3a670cd3af7d64b488926880889d08a8585a138ff455227af6737339a1ec262338383604051610ac5939291906113e6565b60405180910390a1505050565b610ada610c2c565b73ffffffffffffffffffffffffffffffffffffffff16610af861044e565b73ffffffffffffffffffffffffffffffffffffffff1614610b4e576040517f08c379a0000000000000000000000000000000000000000000000000000000008152600401610b4590610f84565b60405180910390fd5b600073ffffffffffffffffffffffffffffffffffffffff168173ffffffffffffffffffffffffffffffffffffffff161415610bbe576040517f08c379a0000000000000000000000000000000000000000000000000000000008152600401610bb59061148f565b60405180910390fd5b610bc781610c34565b50565b600260009054906101000a900473ffffffffffffffffffffffffffffffffffffffff1681565b600360009054906101000a900473ffffffffffffffffffffffffffffffffffffffff1681565b60008183610c2491906114af565b905092915050565b600033905090565b60008060009054906101000a900473ffffffffffffffffffffffffffffffffffffffff169050816000806101000a81548173ffffffffffffffffffffffffffffffffffffffff021916908373ffffffffffffffffffffffffffffffffffffffff1602179055508173ffffffffffffffffffffffffffffffffffffffff168173ffffffffffffffffffffffffffffffffffffffff167f8be0079c531659141344cd1fd0a4f28419497f9722a3daafe3b4186f6b6457e060405160405180910390a35050565b60008183610d0691906114e3565b905092915050565b60008183610d1c919061156c565b905092915050565b600073ffffffffffffffffffffffffffffffffffffffff82169050919050565b6000819050919050565b6000610d69610d64610d5f84610d24565b610d44565b610d24565b9050919050565b6000610d7b82610d4e565b9050919050565b6000610d8d82610d70565b9050919050565b610d9d81610d82565b82525050565b6000602082019050610db86000830184610d94565b92915050565b6000819050919050565b610dd181610dbe565b82525050565b6000602082019050610dec6000830184610dc8565b92915050565b6000610dfd82610d24565b9050919050565b610e0d81610df2565b82525050565b6000602082019050610e286000830184610e04565b92915050565b600080fd5b610e3c81610df2565b8114610e4757600080fd5b50565b600081359050610e5981610e33565b92915050565b600060208284031215610e7557610e74610e2e565b5b6000610e8384828501610e4a565b91505092915050565b610e9581610dbe565b8114610ea057600080fd5b50565b600081359050610eb281610e8c565b92915050565b600060208284031215610ece57610ecd610e2e565b5b6000610edc84828501610ea3565b91505092915050565b600081519050610ef481610e8c565b92915050565b600060208284031215610f1057610f0f610e2e565b5b6000610f1e84828501610ee5565b91505092915050565b600082825260208201905092915050565b7f4f776e61626c653a2063616c6c6572206973206e6f7420746865206f776e6572600082015250565b6000610f6e602083610f27565b9150610f7982610f38565b602082019050919050565b60006020820190508181036000830152610f9d81610f61565b9050919050565b6000604082019050610fb96000830185610e04565b610fc66020830184610dc8565b9392505050565b60008115159050919050565b610fe281610fcd565b8114610fed57600080fd5b50565b600081519050610fff81610fd9565b92915050565b60006020828403121561101b5761101a610e2e565b5b600061102984828501610ff0565b91505092915050565b7f4661696c656420746f2072656d6f766520455243323000000000000000000000600082015250565b6000611068601683610f27565b915061107382611032565b602082019050919050565b600060208201905081810360008301526110978161105b565b9050919050565b7f496e76616c696420616d6f756e74000000000000000000000000000000000000600082015250565b60006110d4600e83610f27565b91506110df8261109e565b602082019050919050565b60006020820190508181036000830152611103816110c7565b9050919050565b600060ff82169050919050565b6111208161110a565b811461112b57600080fd5b50565b60008151905061113d81611117565b92915050565b60006020828403121561115957611158610e2e565b5b60006111678482850161112e565b91505092915050565b7f4e487b7100000000000000000000000000000000000000000000000000000000600052601160045260246000fd5b60008160011c9050919050565b6000808291508390505b60018511156111f6578086048111156111d2576111d1611170565b5b60018516156111e15780820291505b80810290506111ef8561119f565b94506111b6565b94509492505050565b60008261120f57600190506112cb565b8161121d57600090506112cb565b8160018114611233576002811461123d5761126c565b60019150506112cb565b60ff84111561124f5761124e611170565b5b8360020a91508482111561126657611265611170565b5b506112cb565b5060208310610133831016604e8410600b84101617156112a15782820a90508381111561129c5761129b611170565b5b6112cb565b6112ae84848460016111ac565b925090508184048111156112c5576112c4611170565b5b81810290505b9392505050565b60006112dd82610dbe565b91506112e88361110a565b92506113157fffffffffffffffffffffffffffffffffffffffffffffffffffffffffffffffff84846111ff565b905092915050565b7f4e6f7420656e6f7567682066756e647320746f20636f76657220726564656d7060008201527f74696f6e00000000000000000000000000000000000000000000000000000000602082015250565b6000611379602483610f27565b91506113848261131d565b604082019050919050565b600060208201905081810360008301526113a88161136c565b9050919050565b60006060820190506113c46000830186610e04565b6113d16020830185610e04565b6113de6040830184610dc8565b949350505050565b60006060820190506113fb6000830186610e04565b6114086020830185610dc8565b6114156040830184610dc8565b949350505050565b7f4f776e61626c653a206e6577206f776e657220697320746865207a65726f206160008201527f6464726573730000000000000000000000000000000000000000000000000000602082015250565b6000611479602683610f27565b91506114848261141d565b604082019050919050565b600060208201905081810360008301526114a88161146c565b9050919050565b60006114ba82610dbe565b91506114c583610dbe565b9250828210156114d8576114d7611170565b5b828203905092915050565b60006114ee82610dbe565b91506114f983610dbe565b9250817fffffffffffffffffffffffffffffffffffffffffffffffffffffffffffffffff048311821515161561153257611531611170565b5b828202905092915050565b7f4e487b7100000000000000000000000000000000000000000000000000000000600052601260045260246000fd5b600061157782610dbe565b915061158283610dbe565b9250826115925761159161153d565b5b82820490509291505056fea26469706673582212203706f04a81281126d41088b7ea475fa4ce4b83e72c6f108bfcd7ca5f64c981c564736f6c634300080a0033",
  "devdoc": {
    "kind": "dev",
    "methods": {
      "owner()": {
        "details": "Returns the address of the current owner."
      },
      "renounceOwnership()": {
        "details": "Leaves the contract without owner. It will not be possible to call `onlyOwner` functions anymore. Can only be called by the current owner. NOTE: Renouncing ownership will leave the contract without an owner, thereby removing any functionality that is only available to the owner."
      },
      "transferOwnership(address)": {
        "details": "Transfers ownership of the contract to a new account (`newOwner`). Can only be called by the current owner."
      }
    },
    "version": 1
  },
  "userdoc": {
    "kind": "user",
    "methods": {},
    "version": 1
  },
  "storageLayout": {
    "storage": [
      {
        "astId": 7,
        "contract": "contracts/Presale/PresaleRedemption.sol:PresaleRedemption",
        "label": "_owner",
        "offset": 0,
        "slot": "0",
        "type": "t_address"
      },
      {
        "astId": 566,
        "contract": "contracts/Presale/PresaleRedemption.sol:PresaleRedemption",
        "label": "bash",
        "offset": 0,
        "slot": "1",
        "type": "t_contract(IERC20WithMetadata)558"
      },
      {
        "astId": 569,
        "contract": "contracts/Presale/PresaleRedemption.sol:PresaleRedemption",
        "label": "abash",
        "offset": 0,
        "slot": "2",
        "type": "t_contract(IERC20WithMetadata)558"
      },
      {
        "astId": 571,
        "contract": "contracts/Presale/PresaleRedemption.sol:PresaleRedemption",
        "label": "presale",
        "offset": 0,
        "slot": "3",
        "type": "t_address"
      }
    ],
    "types": {
      "t_address": {
        "encoding": "inplace",
        "label": "address",
        "numberOfBytes": "20"
      },
      "t_contract(IERC20WithMetadata)558": {
        "encoding": "inplace",
        "label": "contract IERC20WithMetadata",
        "numberOfBytes": "20"
      }
    }
  }
}